{
  "_format": "hh-sol-artifact-1",
  "contractName": "ReviewCardsFHE",
  "sourceName": "contracts/ReviewCardsFHE.sol",
  "abi": [
    {
      "inputs": [],
      "stateMutability": "nonpayable",
      "type": "constructor"
    },
    {
      "inputs": [],
      "name": "HandlesAlreadySavedForRequestID",
      "type": "error"
    },
    {
      "inputs": [],
      "name": "InvalidKMSSignatures",
      "type": "error"
    },
    {
      "inputs": [],
      "name": "NoHandleFoundForRequestID",
      "type": "error"
    },
    {
      "inputs": [],
      "name": "UnsupportedHandleType",
      "type": "error"
    },
    {
      "anonymous": false,
      "inputs": [
        {
          "indexed": true,
          "internalType": "uint256",
          "name": "cardId",
          "type": "uint256"
        },
        {
          "indexed": true,
          "internalType": "address",
          "name": "creator",
          "type": "address"
        },
        {
          "indexed": false,
          "internalType": "uint256",
          "name": "timestamp",
          "type": "uint256"
        }
      ],
      "name": "CardCreated",
      "type": "event"
    },
    {
      "anonymous": false,
      "inputs": [
        {
          "indexed": false,
          "internalType": "uint256",
          "name": "newFee",
          "type": "uint256"
        }
      ],
      "name": "CreationFeeChanged",
      "type": "event"
    },
    {
      "anonymous": false,
      "inputs": [
        {
          "indexed": true,
          "internalType": "uint256",
          "name": "requestID",
          "type": "uint256"
        }
      ],
      "name": "DecryptionFulfilled",
      "type": "event"
    },
    {
      "anonymous": false,
      "inputs": [
        {
          "indexed": true,
          "internalType": "address",
          "name": "to",
          "type": "address"
        },
        {
          "indexed": false,
          "internalType": "uint256",
          "name": "amount",
          "type": "uint256"
        }
      ],
      "name": "FeesWithdrawn",
      "type": "event"
    },
    {
      "anonymous": false,
      "inputs": [
        {
          "indexed": true,
          "internalType": "uint256",
          "name": "cardId",
          "type": "uint256"
        },
        {
          "indexed": true,
          "internalType": "address",
          "name": "rater",
          "type": "address"
        },
        {
          "indexed": false,
          "internalType": "uint256",
          "name": "timestamp",
          "type": "uint256"
        }
      ],
      "name": "RatingSubmitted",
      "type": "event"
    },
    {
      "anonymous": false,
      "inputs": [
        {
          "indexed": true,
          "internalType": "uint256",
          "name": "cardId",
          "type": "uint256"
        },
        {
          "indexed": false,
          "internalType": "uint64",
          "name": "sum",
          "type": "uint64"
        },
        {
          "indexed": false,
          "internalType": "uint64",
          "name": "count",
          "type": "uint64"
        }
      ],
      "name": "RatingsRevealed",
      "type": "event"
    },
    {
      "inputs": [],
      "name": "createReviewCard",
      "outputs": [],
      "stateMutability": "payable",
      "type": "function"
    },
    {
      "inputs": [],
      "name": "creationFee",
      "outputs": [
        {
          "internalType": "uint256",
          "name": "",
          "type": "uint256"
        }
      ],
      "stateMutability": "view",
      "type": "function"
    },
    {
      "inputs": [
        {
          "internalType": "uint256",
          "name": "requestId",
          "type": "uint256"
        },
        {
          "internalType": "uint64",
          "name": "sum",
          "type": "uint64"
        },
        {
          "internalType": "uint64",
          "name": "count",
          "type": "uint64"
        },
        {
          "internalType": "bytes[]",
          "name": "signatures",
          "type": "bytes[]"
        }
      ],
      "name": "decryptionCallback",
      "outputs": [
        {
          "internalType": "bool",
          "name": "",
          "type": "bool"
        }
      ],
      "stateMutability": "nonpayable",
      "type": "function"
    },
    {
      "inputs": [
        {
          "internalType": "uint256",
          "name": "cardId",
          "type": "uint256"
        }
      ],
      "name": "endRating",
      "outputs": [],
      "stateMutability": "nonpayable",
      "type": "function"
    },
    {
      "inputs": [
        {
          "internalType": "uint256",
          "name": "cardId",
          "type": "uint256"
        }
      ],
      "name": "getCardInfo",
      "outputs": [
        {
          "internalType": "uint256",
          "name": "createdAt",
          "type": "uint256"
        },
        {
          "internalType": "address",
          "name": "creator",
          "type": "address"
        },
        {
          "internalType": "bool",
          "name": "exists",
          "type": "bool"
        }
      ],
      "stateMutability": "view",
      "type": "function"
    },
    {
      "inputs": [
        {
          "internalType": "uint256",
          "name": "cardId",
          "type": "uint256"
        }
      ],
      "name": "getEncryptedStats",
      "outputs": [
        {
          "internalType": "bytes32",
          "name": "sum",
          "type": "bytes32"
        },
        {
          "internalType": "bytes32",
          "name": "count",
          "type": "bytes32"
        }
      ],
      "stateMutability": "view",
      "type": "function"
    },
    {
      "inputs": [],
      "name": "getTotalCards",
      "outputs": [
        {
          "internalType": "uint256",
          "name": "",
          "type": "uint256"
        }
      ],
      "stateMutability": "view",
      "type": "function"
    },
    {
      "inputs": [
        {
          "internalType": "uint256",
          "name": "cardId",
          "type": "uint256"
        },
        {
          "internalType": "address",
          "name": "voter",
          "type": "address"
        }
      ],
      "name": "hasAddressVoted",
      "outputs": [
        {
          "internalType": "bool",
          "name": "",
          "type": "bool"
        }
      ],
      "stateMutability": "view",
      "type": "function"
    },
    {
      "inputs": [
        {
          "internalType": "uint256",
          "name": "",
          "type": "uint256"
        },
        {
          "internalType": "address",
          "name": "",
          "type": "address"
        }
      ],
      "name": "hasVoted",
      "outputs": [
        {
          "internalType": "bool",
          "name": "",
          "type": "bool"
        }
      ],
      "stateMutability": "view",
      "type": "function"
    },
    {
      "inputs": [],
      "name": "nextCardId",
      "outputs": [
        {
          "internalType": "uint256",
          "name": "",
          "type": "uint256"
        }
      ],
      "stateMutability": "view",
      "type": "function"
    },
    {
      "inputs": [],
      "name": "owner",
      "outputs": [
        {
          "internalType": "address",
          "name": "",
          "type": "address"
        }
      ],
      "stateMutability": "view",
      "type": "function"
    },
    {
      "inputs": [
        {
          "internalType": "uint256",
          "name": "",
          "type": "uint256"
        }
      ],
      "name": "requestIdToCardId",
      "outputs": [
        {
          "internalType": "uint256",
          "name": "",
          "type": "uint256"
        }
      ],
      "stateMutability": "view",
      "type": "function"
    },
    {
      "inputs": [
        {
          "internalType": "uint256",
          "name": "",
          "type": "uint256"
        }
      ],
      "name": "reviewCards",
      "outputs": [
        {
          "internalType": "uint256",
          "name": "id",
          "type": "uint256"
        },
        {
          "internalType": "euint64",
          "name": "encryptedSum",
          "type": "bytes32"
        },
        {
          "internalType": "euint64",
          "name": "encryptedCount",
          "type": "bytes32"
        },
        {
          "internalType": "bool",
          "name": "exists",
          "type": "bool"
        },
        {
          "internalType": "uint256",
          "name": "createdAt",
          "type": "uint256"
        },
        {
          "internalType": "address",
          "name": "creator",
          "type": "address"
        },
        {
          "internalType": "bool",
          "name": "revealed",
          "type": "bool"
        },
        {
          "internalType": "bool",
          "name": "decryptionPending",
          "type": "bool"
        },
        {
          "internalType": "uint256",
          "name": "decryptionRequestId",
          "type": "uint256"
        },
        {
          "internalType": "uint64",
          "name": "decryptedSum",
          "type": "uint64"
        },
        {
          "internalType": "uint64",
          "name": "decryptedCount",
          "type": "uint64"
        }
      ],
      "stateMutability": "view",
      "type": "function"
    },
    {
      "inputs": [
        {
          "internalType": "uint256",
          "name": "newFee",
          "type": "uint256"
        }
      ],
      "name": "setCreationFee",
      "outputs": [],
      "stateMutability": "nonpayable",
      "type": "function"
    },
    {
      "inputs": [
        {
          "internalType": "uint256",
          "name": "cardId",
          "type": "uint256"
        },
        {
          "internalType": "externalEuint64",
          "name": "encryptedRating",
          "type": "bytes32"
        },
        {
          "internalType": "bytes",
          "name": "inputProof",
          "type": "bytes"
        }
      ],
      "name": "submitEncryptedRating",
      "outputs": [],
      "stateMutability": "nonpayable",
      "type": "function"
    },
    {
      "inputs": [],
      "name": "withdrawFees",
      "outputs": [],
      "stateMutability": "nonpayable",
      "type": "function"
    }
  ],
  "bytecode": "0x6080604052670214e8348c4f000060045534801561001b575f80fd5b506101966100ba604080516080810182525f808252602082018190529181018290526060810191909152506040805160808101825273687820221192c5b662b25367f70076a37bc79b6c815273848b0066793bcc60346da1f49049357399b8d5956020820152731364cbbf2cdf5032c47d8226a6f6fbd2afcdacac9181019190915273bc91f3dad1a5f19f8390c400196e58073b6a0bc4606082015290565b80517fed8d60e34876f751cc8b014c560745351147d9de11b9347c854e881b128ea60080546001600160a01b03199081166001600160a01b039384161790915560208301517fed8d60e34876f751cc8b014c560745351147d9de11b9347c854e881b128ea6018054831691841691909117905560408301517fed8d60e34876f751cc8b014c560745351147d9de11b9347c854e881b128ea6028054831691841691909117905560608301517fed8d60e34876f751cc8b014c560745351147d9de11b9347c854e881b128ea6038054909216921691909117905550565b7f5ea69329017273582817d320489fbd94f775580e90c092699ca6f3d12fdf7d0080546001600160a01b03191673a02cda4ca3a71d7c46997716f4283aa851c28812179055600380546001600160a01b03191633179055611b54806101fa5f395ff3fe6080604052600436106100ef575f3560e01c8063970129be11610087578063c5263e8c11610057578063c5263e8c146103d4578063cff25908146103e9578063d98499af146103f1578063dce0b4e414610410575f80fd5b8063970129be146103295780639f2deb4c1461036d578063b7d86225146103a1578063b8d2caee146103c0575f80fd5b80634f2d590b116100c25780634f2d590b1461027b5780635f5a6ee3146102b4578063736faeec146102d35780638da5cb5b146102f2575f80fd5b8063021958c2146100f35780632ac1cda2146101fd578063438596321461022c578063476343ee14610265575b5f80fd5b3480156100fe575f80fd5b5061018c61010d366004611693565b5f602081905290815260409020805460018201546002830154600384015460048501546005860154600687015460079097015495969495939460ff9384169492936001600160a01b03831693600160a01b8404821693600160a81b9004909116919067ffffffffffffffff80821691680100000000000000009004168b565b604080519b8c5260208c019a909a52988a0197909752941515606089015260808801939093526001600160a01b0390911660a0870152151560c0860152151560e085015261010084015267ffffffffffffffff90811661012084015216610140820152610160015b60405180910390f35b348015610208575f80fd5b5061021c61021736600461170b565b610425565b60405190151581526020016101f4565b348015610237575f80fd5b5061021c610246366004611840565b600260209081525f928352604080842090915290825290205460ff1681565b348015610270575f80fd5b50610279610559565b005b348015610286575f80fd5b506102a6610295366004611693565b60056020525f908152604090205481565b6040519081526020016101f4565b3480156102bf575f80fd5b506102796102ce366004611879565b61066a565b3480156102de575f80fd5b5061021c6102ed366004611840565b610888565b3480156102fd575f80fd5b50600354610311906001600160a01b031681565b6040516001600160a01b0390911681526020016101f4565b348015610334575f80fd5b50610348610343366004611693565b6108b4565b604080519384526001600160a01b0390921660208401521515908201526060016101f4565b348015610378575f80fd5b5061038c610387366004611693565b610944565b604080519283526020830191909152016101f4565b3480156103ac575f80fd5b506102796103bb366004611693565b6109c3565b3480156103cb575f80fd5b506001546102a6565b3480156103df575f80fd5b506102a660015481565b610279610a44565b3480156103fc575f80fd5b5061027961040b366004611693565b610b79565b34801561041b575f80fd5b506102a660045481565b5f84815260056020908152604080832054808452918390528220600681015487146104975760405162461bcd60e51b815260206004820152601160248201527f496e76616c69642072657175657374496400000000000000000000000000000060448201526064015b60405180910390fd5b6104a18785610da7565b60078101805467ffffffffffffffff8881166fffffffffffffffffffffffffffffffff1990921682176801000000000000000091891691820217909255600583018054600160a01b7fffffffffffffffffffff0000ffffffffffffffffffffffffffffffffffffffff90911617905560408051918252602082019290925283917fdbea6ca82d925153c9cde3cba957298fe2b85048bd72ba675d888511d52872aa910160405180910390a25060019695505050505050565b6003546001600160a01b0316331461059f5760405162461bcd60e51b81526020600482015260096024820152682737ba1037bbb732b960b91b604482015260640161048e565b47806105ed5760405162461bcd60e51b815260206004820152601360248201527f4e6f206665657320746f20776974686472617700000000000000000000000000604482015260640161048e565b6003546040516001600160a01b039091169082156108fc029083905f818181858888f19350505050158015610624573d5f803e3d5ffd5b506003546040518281526001600160a01b03909116907fc0819c13be868895eb93e40eaceb96de976442fa1d404e5c55f14bb65a8c489a9060200160405180910390a250565b5f8481526020819052604090206003015460ff166106c05760405162461bcd60e51b815260206004820152601360248201527210d85c9908191bd95cc81b9bdd08195e1a5cdd606a1b604482015260640161048e565b5f84815260208190526040902060050154600160a01b900460ff16156107285760405162461bcd60e51b815260206004820152601a60248201527f526174696e67732068617665206265656e2072657665616c6564000000000000604482015260640161048e565b5f84815260026020908152604080832033845290915290205460ff16156107915760405162461bcd60e51b815260206004820152601a60248201527f416c726561647920766f746564206f6e20746869732063617264000000000000604482015260640161048e565b5f848152602081815260408083208151601f860184900484028101840190925284825292916107db91879187908790819084018382808284375f92019190915250610e0e92505050565b90506107eb826001015482610e22565b600183018190556107fb90610e50565b505f6108076001610e5f565b9050610817836002015482610e22565b6002840181905561082790610e50565b505f8781526002602090815260408083203380855290835292819020805460ff191660011790555142815289917f333bebed08daecca8362db8fead5f4322e8cdeaf9d801dd198819482f3c7c05b910160405180910390a350505050505050565b5f8281526002602090815260408083206001600160a01b038516845290915290205460ff165b92915050565b5f818152602081905260408120600301548190819060ff1661090e5760405162461bcd60e51b815260206004820152601360248201527210d85c9908191bd95cc81b9bdd08195e1a5cdd606a1b604482015260640161048e565b5050505f8181526020819052604090206004810154600582015460039092015490916001600160a01b03169060ff169193909250565b5f81815260208190526040812060030154819060ff1661099c5760405162461bcd60e51b815260206004820152601360248201527210d85c9908191bd95cc81b9bdd08195e1a5cdd606a1b604482015260640161048e565b5f838152602081905260409020600181015492506109bb816002015490565b915050915091565b6003546001600160a01b03163314610a095760405162461bcd60e51b81526020600482015260096024820152682737ba1037bbb732b960b91b604482015260640161048e565b60048190556040518181527fb472bc245cc56131a253d64c0fd5cf333aaacde67bf4571c077aa32150256e219060200160405180910390a150565b600454341015610a965760405162461bcd60e51b815260206004820152601960248201527f496e73756666696369656e74206372656174696f6e2066656500000000000000604482015260640161048e565b600180545f9182610aa683611906565b909155505f818152602081905260408120828155919250610ac690610e5f565b60018201819055610ad690610e50565b50610ae05f610e5f565b60028201819055610af090610e50565b5060038101805460ff1916600117905542600482018190556005820180547fffffffffffffffffffffffff00000000000000000000000000000000000000001633908117909155604051909184917f3cfb36b3d25e3ea3dfb1a62f1dc4e58b169fba835534965932286661eecf2a1291610b6d9190815260200190565b60405180910390a35050565b5f818152602081905260409020600381015460ff16610bd05760405162461bcd60e51b815260206004820152601360248201527210d85c9908191bd95cc81b9bdd08195e1a5cdd606a1b604482015260640161048e565b60058101546001600160a01b03163314610c2c5760405162461bcd60e51b815260206004820152601b60248201527f4f6e6c792063726561746f722063616e20656e6420726174696e670000000000604482015260640161048e565b6005810154600160a01b900460ff1615610c885760405162461bcd60e51b815260206004820152601060248201527f416c72656164792072657665616c656400000000000000000000000000000000604482015260640161048e565b6005810154600160a81b900460ff1615610ce45760405162461bcd60e51b815260206004820152601260248201527f44656372797074696f6e2070656e64696e670000000000000000000000000000604482015260640161048e565b6040805160028082526060820183525f926020830190803683375050506001830154909150815f81518110610d1b57610d1b61191e565b6020908102919091010152600282015481600181518110610d3e57610d3e61191e565b60209081029190910101525f610d5b82631560e6d160e11b610e75565b600580850180547fffffffffffffffffffff00ffffffffffffffffffffffffffffffffffffffffff16600160a81b17905560069094018190555f90815260209390935250506040902055565b5f610db183610e81565b90505f610dbe8284610f52565b905080610dde5760405163cf6c44e960e01b815260040160405180910390fd5b60405184907f1af0453083661051f6e56e5c070792320652e612154bf9af8637bb1e7655b99d905f90a250505050565b5f610e1b8383600561106d565b9392505050565b5f82610e3457610e315f610e5f565b92505b81610e4557610e425f610e5f565b91505b610e1b83835f61118d565b5f610e5b823061126d565b5090565b5f6108ae8267ffffffffffffffff1660056112f6565b5f610e1b83835f6113b3565b5f8181527f5ea69329017273582817d320489fbd94f775580e90c092699ca6f3d12fdf7d0260205260408120546060917f5ea69329017273582817d320489fbd94f775580e90c092699ca6f3d12fdf7d00919003610ef25760405163d66ca67560e01b815260040160405180910390fd5b5f83815260028201602090815260409182902080548351818402810184019094528084529091830182828015610f4557602002820191905f5260205f20905b815481526020019060010190808311610f31575b5050505050915050919050565b5f602481610f5f856114ff565b90505f8167ffffffffffffffff811115610f7b57610f7b6116c6565b6040519080825280601f01601f191660200182016040528015610fa5576020820181803683370190505b509050818360208301377fed8d60e34876f751cc8b014c560745351147d9de11b9347c854e881b128ea60254604051632c027b1360e21b81527fed8d60e34876f751cc8b014c560745351147d9de11b9347c854e881b128ea600916001600160a01b03169063b009ec4c90611022908a9086908b906004016119af565b6020604051808303815f875af115801561103e573d5f803e3d5ffd5b505050506040513d601f19601f820116820180604052508101906110629190611a34565b979650505050505050565b7fed8d60e34876f751cc8b014c560745351147d9de11b9347c854e881b128ea6015460405163196d0b9b60e01b81525f917fed8d60e34876f751cc8b014c560745351147d9de11b9347c854e881b128ea600916001600160a01b039091169063196d0b9b906110e6908890339089908990600401611a87565b6020604051808303815f875af1158015611102573d5f803e3d5ffd5b505050506040513d601f19601f820116820180604052508101906111269190611ac6565b8154604051630f8e573b60e21b8152600481018390523360248201529193506001600160a01b031690633e395cec906044015f604051808303815f87803b15801561116f575f80fd5b505af1158015611181573d5f803e3d5ffd5b50505050509392505050565b5f8082156111a05750600160f81b6111a3565b505f5b5f7fed8d60e34876f751cc8b014c560745351147d9de11b9347c854e881b128ea600600181015460405163022f65e760e31b815260048101899052602481018890527fff00000000000000000000000000000000000000000000000000000000000000851660448201529192506001600160a01b03169063117b2f38906064016020604051808303815f875af115801561123f573d5f803e3d5ffd5b505050506040513d601f19601f820116820180604052508101906112639190611ac6565b9695505050505050565b5f7fed8d60e34876f751cc8b014c560745351147d9de11b9347c854e881b128ea6008054604051635ca4b5b160e11b8152600481018690526001600160a01b03858116602483015292935091169063b9496b62906044015f604051808303815f87803b1580156112db575f80fd5b505af11580156112ed573d5f803e3d5ffd5b50505050505050565b7fed8d60e34876f751cc8b014c560745351147d9de11b9347c854e881b128ea60154604051639cd07acb60e01b81525f917fed8d60e34876f751cc8b014c560745351147d9de11b9347c854e881b128ea600916001600160a01b0390911690639cd07acb9061136b9087908790600401611add565b6020604051808303815f875af1158015611387573d5f803e3d5ffd5b505050506040513d601f19601f820116820180604052508101906113ab9190611ac6565b949350505050565b7f5ea69329017273582817d320489fbd94f775580e90c092699ca6f3d12fdf7d01547fed8d60e34876f751cc8b014c560745351147d9de11b9347c854e881b128ea6008054604051637d6e912360e11b81527f5ea69329017273582817d320489fbd94f775580e90c092699ca6f3d12fdf7d0092916001600160a01b03169063fadd224690611446908990600401611af1565b5f604051808303815f87803b15801561145d575f80fd5b505af115801561146f573d5f803e3d5ffd5b50508354604051633263b83b60e01b81526001600160a01b039091169250633263b83b915086906114a89087908b908b90600401611b03565b5f604051808303818588803b1580156114bf575f80fd5b505af11580156114d1573d5f803e3d5ffd5b50505050506114e083876115ac565b600182018054905f6114f183611906565b919050555050509392505050565b80515f9081805b828110156115a0575f8582815181106115215761152161191e565b6020026020010151601e6020811061153b5761153b61191e565b1a605381111561154d5761154d611a53565b9050600981605381111561156357611563611a53565b60ff16101561157e57611577602084611b34565b9250611597565b60405163ce54a8d160e01b815260040160405180910390fd5b50600101611506565b506113ab602082611b34565b5f8281527f5ea69329017273582817d320489fbd94f775580e90c092699ca6f3d12fdf7d0260205260409020547f5ea69329017273582817d320489fbd94f775580e90c092699ca6f3d12fdf7d00901561161957604051633f06d22b60e01b815260040160405180910390fd5b5f838152600282016020908152604090912083516116399285019061163f565b50505050565b828054828255905f5260205f20908101928215611678579160200282015b8281111561167857825182559160200191906001019061165d565b50610e5b9291505b80821115610e5b575f8155600101611680565b5f602082840312156116a3575f80fd5b5035919050565b803567ffffffffffffffff811681146116c1575f80fd5b919050565b634e487b7160e01b5f52604160045260245ffd5b604051601f8201601f1916810167ffffffffffffffff81118282101715611703576117036116c6565b604052919050565b5f805f806080858703121561171e575f80fd5b84359350602061172f8187016116aa565b935061173d604087016116aa565b9250606086013567ffffffffffffffff80821115611759575f80fd5b818801915088601f83011261176c575f80fd5b81358181111561177e5761177e6116c6565b8060051b61178d8582016116da565b918252838101850191858101908c8411156117a6575f80fd5b86860192505b8383101561182f578235858111156117c2575f80fd5b8601603f81018e136117d2575f80fd5b87810135868111156117e6576117e66116c6565b6117f8601f8201601f19168a016116da565b8181528f604083850101111561180c575f80fd5b81604084018b8301375f9181018a019190915283525091860191908601906117ac565b999c989b5096995050505050505050565b5f8060408385031215611851575f80fd5b8235915060208301356001600160a01b038116811461186e575f80fd5b809150509250929050565b5f805f806060858703121561188c575f80fd5b8435935060208501359250604085013567ffffffffffffffff808211156118b1575f80fd5b818701915087601f8301126118c4575f80fd5b8135818111156118d2575f80fd5b8860208285010111156118e3575f80fd5b95989497505060200194505050565b634e487b7160e01b5f52601160045260245ffd5b5f60018201611917576119176118f2565b5060010190565b634e487b7160e01b5f52603260045260245ffd5b5f815180845260208085019450602084015f5b8381101561196157815187529582019590820190600101611945565b509495945050505050565b5f81518084525f5b8181101561199057602081850181015186830182015201611974565b505f602082860101526020601f19601f83011685010191505092915050565b606081525f6119c16060830186611932565b6020838203818501526119d4828761196c565b915083820360408501528185518084528284019150828160051b8501018388015f5b83811015611a2457601f19878403018552611a1283835161196c565b948601949250908501906001016119f6565b50909a9950505050505050505050565b5f60208284031215611a44575f80fd5b81518015158114610e1b575f80fd5b634e487b7160e01b5f52602160045260245ffd5b60548110611a8357634e487b7160e01b5f52602160045260245ffd5b9052565b8481526001600160a01b0384166020820152608060408201525f611aae608083018561196c565b9050611abd6060830184611a67565b95945050505050565b5f60208284031215611ad6575f80fd5b5051919050565b82815260408101610e1b6020830184611a67565b602081525f610e1b6020830184611932565b838152606060208201525f611b1b6060830185611932565b905063ffffffff60e01b83166040830152949350505050565b808201808211156108ae576108ae6118f256fea164736f6c6343000818000a",
  "linkReferences": {},
  "deployedLinkReferences": {}
}