{
  "_format": "hh-sol-artifact-1",
  "contractName": "ReviewCardsFHE",
  "sourceName": "contracts/ReviewCardsFHE.sol",
  "abi": [
    {
      "inputs": [],
      "stateMutability": "nonpayable",
      "type": "constructor"
    },
    {
      "anonymous": false,
      "inputs": [
        {
          "indexed": true,
          "internalType": "uint256",
          "name": "cardId",
          "type": "uint256"
        },
        {
          "indexed": true,
          "internalType": "address",
          "name": "creator",
          "type": "address"
        },
        {
          "indexed": false,
          "internalType": "uint256",
          "name": "timestamp",
          "type": "uint256"
        }
      ],
      "name": "CardCreated",
      "type": "event"
    },
    {
      "anonymous": false,
      "inputs": [
        {
          "indexed": false,
          "internalType": "uint256",
          "name": "newFee",
          "type": "uint256"
        }
      ],
      "name": "CreationFeeChanged",
      "type": "event"
    },
    {
      "anonymous": false,
      "inputs": [
        {
          "indexed": true,
          "internalType": "address",
          "name": "to",
          "type": "address"
        },
        {
          "indexed": false,
          "internalType": "uint256",
          "name": "amount",
          "type": "uint256"
        }
      ],
      "name": "FeesWithdrawn",
      "type": "event"
    },
    {
      "anonymous": false,
      "inputs": [
        {
          "indexed": true,
          "internalType": "uint256",
          "name": "cardId",
          "type": "uint256"
        },
        {
          "indexed": true,
          "internalType": "address",
          "name": "rater",
          "type": "address"
        },
        {
          "indexed": false,
          "internalType": "uint256",
          "name": "timestamp",
          "type": "uint256"
        }
      ],
      "name": "RatingSubmitted",
      "type": "event"
    },
    {
      "inputs": [],
      "name": "createReviewCard",
      "outputs": [],
      "stateMutability": "payable",
      "type": "function"
    },
    {
      "inputs": [],
      "name": "creationFee",
      "outputs": [
        {
          "internalType": "uint256",
          "name": "",
          "type": "uint256"
        }
      ],
      "stateMutability": "view",
      "type": "function"
    },
    {
      "inputs": [
        {
          "internalType": "uint256",
          "name": "cardId",
          "type": "uint256"
        }
      ],
      "name": "getCardInfo",
      "outputs": [
        {
          "internalType": "uint256",
          "name": "createdAt",
          "type": "uint256"
        },
        {
          "internalType": "address",
          "name": "creator",
          "type": "address"
        },
        {
          "internalType": "bool",
          "name": "exists",
          "type": "bool"
        }
      ],
      "stateMutability": "view",
      "type": "function"
    },
    {
      "inputs": [
        {
          "internalType": "uint256",
          "name": "cardId",
          "type": "uint256"
        }
      ],
      "name": "getEncryptedStats",
      "outputs": [
        {
          "internalType": "bytes32",
          "name": "sum",
          "type": "bytes32"
        },
        {
          "internalType": "bytes32",
          "name": "count",
          "type": "bytes32"
        }
      ],
      "stateMutability": "view",
      "type": "function"
    },
    {
      "inputs": [],
      "name": "getTotalCards",
      "outputs": [
        {
          "internalType": "uint256",
          "name": "",
          "type": "uint256"
        }
      ],
      "stateMutability": "view",
      "type": "function"
    },
    {
      "inputs": [
        {
          "internalType": "uint256",
          "name": "cardId",
          "type": "uint256"
        },
        {
          "internalType": "address",
          "name": "voter",
          "type": "address"
        }
      ],
      "name": "hasAddressVoted",
      "outputs": [
        {
          "internalType": "bool",
          "name": "",
          "type": "bool"
        }
      ],
      "stateMutability": "view",
      "type": "function"
    },
    {
      "inputs": [
        {
          "internalType": "uint256",
          "name": "",
          "type": "uint256"
        },
        {
          "internalType": "address",
          "name": "",
          "type": "address"
        }
      ],
      "name": "hasVoted",
      "outputs": [
        {
          "internalType": "bool",
          "name": "",
          "type": "bool"
        }
      ],
      "stateMutability": "view",
      "type": "function"
    },
    {
      "inputs": [],
      "name": "nextCardId",
      "outputs": [
        {
          "internalType": "uint256",
          "name": "",
          "type": "uint256"
        }
      ],
      "stateMutability": "view",
      "type": "function"
    },
    {
      "inputs": [],
      "name": "owner",
      "outputs": [
        {
          "internalType": "address",
          "name": "",
          "type": "address"
        }
      ],
      "stateMutability": "view",
      "type": "function"
    },
    {
      "inputs": [
        {
          "internalType": "uint256",
          "name": "",
          "type": "uint256"
        }
      ],
      "name": "reviewCards",
      "outputs": [
        {
          "internalType": "uint256",
          "name": "id",
          "type": "uint256"
        },
        {
          "internalType": "euint64",
          "name": "encryptedSum",
          "type": "bytes32"
        },
        {
          "internalType": "euint64",
          "name": "encryptedCount",
          "type": "bytes32"
        },
        {
          "internalType": "bool",
          "name": "exists",
          "type": "bool"
        },
        {
          "internalType": "uint256",
          "name": "createdAt",
          "type": "uint256"
        },
        {
          "internalType": "address",
          "name": "creator",
          "type": "address"
        }
      ],
      "stateMutability": "view",
      "type": "function"
    },
    {
      "inputs": [
        {
          "internalType": "uint256",
          "name": "newFee",
          "type": "uint256"
        }
      ],
      "name": "setCreationFee",
      "outputs": [],
      "stateMutability": "nonpayable",
      "type": "function"
    },
    {
      "inputs": [
        {
          "internalType": "uint256",
          "name": "cardId",
          "type": "uint256"
        },
        {
          "internalType": "externalEuint64",
          "name": "encryptedRating",
          "type": "bytes32"
        },
        {
          "internalType": "bytes",
          "name": "inputProof",
          "type": "bytes"
        }
      ],
      "name": "submitEncryptedRating",
      "outputs": [],
      "stateMutability": "nonpayable",
      "type": "function"
    },
    {
      "inputs": [],
      "name": "withdrawFees",
      "outputs": [],
      "stateMutability": "nonpayable",
      "type": "function"
    }
  ],
  "bytecode": "0x6080604052670214e8348c4f000060045534801561001b575f80fd5b506101966100ba604080516080810182525f808252602082018190529181018290526060810191909152506040805160808101825273687820221192c5b662b25367f70076a37bc79b6c815273848b0066793bcc60346da1f49049357399b8d5956020820152731364cbbf2cdf5032c47d8226a6f6fbd2afcdacac9181019190915273bc91f3dad1a5f19f8390c400196e58073b6a0bc4606082015290565b80517fed8d60e34876f751cc8b014c560745351147d9de11b9347c854e881b128ea60080546001600160a01b03199081166001600160a01b039384161790915560208301517fed8d60e34876f751cc8b014c560745351147d9de11b9347c854e881b128ea6018054831691841691909117905560408301517fed8d60e34876f751cc8b014c560745351147d9de11b9347c854e881b128ea6028054831691841691909117905560608301517fed8d60e34876f751cc8b014c560745351147d9de11b9347c854e881b128ea6038054909216921691909117905550565b7f5ea69329017273582817d320489fbd94f775580e90c092699ca6f3d12fdf7d0080546001600160a01b03191673a02cda4ca3a71d7c46997716f4283aa851c28812179055600380546001600160a01b03191633179055610f6d806101fa5f395ff3fe6080604052600436106100ce575f3560e01c8063970129be1161007c578063b8d2caee11610057578063b8d2caee146102fa578063c5263e8c14610318578063cff259081461032d578063dce0b4e414610335575f80fd5b8063970129be146102635780639f2deb4c146102a7578063b7d86225146102db575f80fd5b80635f5a6ee3116100ac5780635f5a6ee3146101c9578063736faeec146101e85780638da5cb5b1461022c575f80fd5b8063021958c2146100d2578063438596321461016a578063476343ee146101b3575b5f80fd5b3480156100dd575f80fd5b5061012d6100ec366004610d5f565b5f6020819052908152604090208054600182015460028301546003840154600485015460059095015493949293919260ff909116916001600160a01b031686565b604080519687526020870195909552938501929092521515606084015260808301526001600160a01b031660a082015260c0015b60405180910390f35b348015610175575f80fd5b506101a3610184366004610d76565b600260209081525f928352604080842090915290825290205460ff1681565b6040519015158152602001610161565b3480156101be575f80fd5b506101c761034a565b005b3480156101d4575f80fd5b506101c76101e3366004610daf565b610460565b3480156101f3575f80fd5b506101a3610202366004610d76565b5f9182526002602090815260408084206001600160a01b0393909316845291905290205460ff1690565b348015610237575f80fd5b5060035461024b906001600160a01b031681565b6040516001600160a01b039091168152602001610161565b34801561026e575f80fd5b5061028261027d366004610d5f565b610632565b604080519384526001600160a01b039092166020840152151590820152606001610161565b3480156102b2575f80fd5b506102c66102c1366004610d5f565b6106c2565b60408051928352602083019190915201610161565b3480156102e6575f80fd5b506101c76102f5366004610d5f565b610741565b348015610305575f80fd5b506001545b604051908152602001610161565b348015610323575f80fd5b5061030a60015481565b6101c76107c2565b348015610340575f80fd5b5061030a60045481565b6003546001600160a01b031633146103955760405162461bcd60e51b81526020600482015260096024820152682737ba1037bbb732b960b91b60448201526064015b60405180910390fd5b47806103e35760405162461bcd60e51b815260206004820152601360248201527f4e6f206665657320746f20776974686472617700000000000000000000000000604482015260640161038c565b6003546040516001600160a01b039091169082156108fc029083905f818181858888f1935050505015801561041a573d5f803e3d5ffd5b506003546040518281526001600160a01b03909116907fc0819c13be868895eb93e40eaceb96de976442fa1d404e5c55f14bb65a8c489a9060200160405180910390a250565b5f8481526020819052604090206003015460ff166104b65760405162461bcd60e51b815260206004820152601360248201527210d85c9908191bd95cc81b9bdd08195e1a5cdd606a1b604482015260640161038c565b5f84815260026020908152604080832033845290915290205460ff161561051f5760405162461bcd60e51b815260206004820152601a60248201527f416c726561647920766f746564206f6e20746869732063617264000000000000604482015260640161038c565b5f848152602081815260408083208151601f8601849004840281018401909252848252929161056991879187908790819084018382808284375f9201919091525061091392505050565b9050610579826001015482610927565b6001830181905561058990610955565b506105978260010154610964565b505f6105a3600161096e565b90506105b3836002015482610927565b600284018190556105c390610955565b506105d18360020154610964565b505f8781526002602090815260408083203380855290835292819020805460ff191660011790555142815289917f333bebed08daecca8362db8fead5f4322e8cdeaf9d801dd198819482f3c7c05b910160405180910390a350505050505050565b5f818152602081905260408120600301548190819060ff1661068c5760405162461bcd60e51b815260206004820152601360248201527210d85c9908191bd95cc81b9bdd08195e1a5cdd606a1b604482015260640161038c565b5050505f8181526020819052604090206004810154600582015460039092015490916001600160a01b03169060ff169193909250565b5f81815260208190526040812060030154819060ff1661071a5760405162461bcd60e51b815260206004820152601360248201527210d85c9908191bd95cc81b9bdd08195e1a5cdd606a1b604482015260640161038c565b5f83815260208190526040902060018101549250610739816002015490565b915050915091565b6003546001600160a01b031633146107875760405162461bcd60e51b81526020600482015260096024820152682737ba1037bbb732b960b91b604482015260640161038c565b60048190556040518181527fb472bc245cc56131a253d64c0fd5cf333aaacde67bf4571c077aa32150256e219060200160405180910390a150565b6004543410156108145760405162461bcd60e51b815260206004820152601960248201527f496e73756666696369656e74206372656174696f6e2066656500000000000000604482015260640161038c565b600180545f918261082483610e28565b909155505f8181526020819052604081208281559192506108449061096e565b6001820181905561085490610955565b506108628160010154610964565b5061086c5f61096e565b6002820181905561087c90610955565b5061088a8160020154610964565b5060038101805460ff1916600117905542600482018190556005820180547fffffffffffffffffffffffff00000000000000000000000000000000000000001633908117909155604051909184917f3cfb36b3d25e3ea3dfb1a62f1dc4e58b169fba835534965932286661eecf2a12916109079190815260200190565b60405180910390a35050565b5f6109208383600561098a565b9392505050565b5f82610939576109365f61096e565b92505b8161094a576109475f61096e565b91505b61092083835f610aaa565b5f6109608230610b8a565b5090565b5f61096082610c11565b5f6109848267ffffffffffffffff166005610ca2565b92915050565b7fed8d60e34876f751cc8b014c560745351147d9de11b9347c854e881b128ea6015460405163196d0b9b60e01b81525f917fed8d60e34876f751cc8b014c560745351147d9de11b9347c854e881b128ea600916001600160a01b039091169063196d0b9b90610a03908890339089908990600401610e6c565b6020604051808303815f875af1158015610a1f573d5f803e3d5ffd5b505050506040513d601f19601f82011682018060405250810190610a439190610ede565b8154604051630f8e573b60e21b8152600481018390523360248201529193506001600160a01b031690633e395cec906044015f604051808303815f87803b158015610a8c575f80fd5b505af1158015610a9e573d5f803e3d5ffd5b50505050509392505050565b5f808215610abd5750600160f81b610ac0565b505f5b5f7fed8d60e34876f751cc8b014c560745351147d9de11b9347c854e881b128ea600600181015460405163022f65e760e31b815260048101899052602481018890527fff00000000000000000000000000000000000000000000000000000000000000851660448201529192506001600160a01b03169063117b2f38906064016020604051808303815f875af1158015610b5c573d5f803e3d5ffd5b505050506040513d601f19601f82011682018060405250810190610b809190610ede565b9695505050505050565b7fed8d60e34876f751cc8b014c560745351147d9de11b9347c854e881b128ea6008054604051635ca4b5b160e11b8152600481018590526001600160a01b0384811660248301529091169063b9496b62906044015b5f604051808303815f87803b158015610bf6575f80fd5b505af1158015610c08573d5f803e3d5ffd5b50505050505050565b6040805160018082528183019092527fed8d60e34876f751cc8b014c560745351147d9de11b9347c854e881b128ea600915f91906020808301908036833701905050905082815f81518110610c6857610c68610ef5565b60209081029190910101528154604051637d6e912360e11b81526001600160a01b039091169063fadd224690610bdf908490600401610f09565b7fed8d60e34876f751cc8b014c560745351147d9de11b9347c854e881b128ea60154604051639cd07acb60e01b81525f917fed8d60e34876f751cc8b014c560745351147d9de11b9347c854e881b128ea600916001600160a01b0390911690639cd07acb90610d179087908790600401610f4c565b6020604051808303815f875af1158015610d33573d5f803e3d5ffd5b505050506040513d601f19601f82011682018060405250810190610d579190610ede565b949350505050565b5f60208284031215610d6f575f80fd5b5035919050565b5f8060408385031215610d87575f80fd5b8235915060208301356001600160a01b0381168114610da4575f80fd5b809150509250929050565b5f805f8060608587031215610dc2575f80fd5b8435935060208501359250604085013567ffffffffffffffff80821115610de7575f80fd5b818701915087601f830112610dfa575f80fd5b813581811115610e08575f80fd5b886020828501011115610e19575f80fd5b95989497505060200194505050565b5f60018201610e4557634e487b7160e01b5f52601160045260245ffd5b5060010190565b60548110610e6857634e487b7160e01b5f52602160045260245ffd5b9052565b8481525f60206001600160a01b03861660208401526080604084015284518060808501525f5b81811015610eae5786810183015185820160a001528201610e92565b505f60a0828601015260a0601f19601f83011685010192505050610ed56060830184610e4c565b95945050505050565b5f60208284031215610eee575f80fd5b5051919050565b634e487b7160e01b5f52603260045260245ffd5b602080825282518282018190525f9190848201906040850190845b81811015610f4057835183529284019291840191600101610f24565b50909695505050505050565b828152604081016109206020830184610e4c56fea164736f6c6343000818000a",
  "linkReferences": {},
  "deployedLinkReferences": {}
}